{
  "contractName": "Khufu",
  "abi": [
    {
      "inputs": [
        {
          "internalType": "contract GizaToken",
          "name": "gizaToken_",
          "type": "address"
        }
      ],
      "stateMutability": "nonpayable",
      "type": "constructor"
    },
    {
      "anonymous": false,
      "inputs": [
        {
          "indexed": true,
          "internalType": "address",
          "name": "user",
          "type": "address"
        },
        {
          "indexed": true,
          "internalType": "address",
          "name": "referral",
          "type": "address"
        }
      ],
      "name": "Join",
      "type": "event"
    },
    {
      "anonymous": false,
      "inputs": [
        {
          "indexed": true,
          "internalType": "address",
          "name": "user",
          "type": "address"
        },
        {
          "indexed": false,
          "internalType": "uint256",
          "name": "amount",
          "type": "uint256"
        }
      ],
      "name": "Leave",
      "type": "event"
    },
    {
      "inputs": [],
      "name": "owner",
      "outputs": [
        {
          "internalType": "address",
          "name": "",
          "type": "address"
        }
      ],
      "stateMutability": "view",
      "type": "function",
      "constant": true
    },
    {
      "inputs": [],
      "name": "totalBalance",
      "outputs": [
        {
          "internalType": "uint256",
          "name": "",
          "type": "uint256"
        }
      ],
      "stateMutability": "view",
      "type": "function",
      "constant": true
    },
    {
      "inputs": [
        {
          "internalType": "address",
          "name": "_participant",
          "type": "address"
        }
      ],
      "name": "isParticipating",
      "outputs": [
        {
          "internalType": "bool",
          "name": "",
          "type": "bool"
        }
      ],
      "stateMutability": "view",
      "type": "function",
      "constant": true
    },
    {
      "inputs": [
        {
          "internalType": "address",
          "name": "_referral",
          "type": "address"
        }
      ],
      "name": "join",
      "outputs": [],
      "stateMutability": "payable",
      "type": "function",
      "payable": true
    },
    {
      "inputs": [
        {
          "internalType": "address",
          "name": "participant",
          "type": "address"
        }
      ],
      "name": "balanceOf",
      "outputs": [
        {
          "internalType": "uint256",
          "name": "",
          "type": "uint256"
        }
      ],
      "stateMutability": "view",
      "type": "function",
      "constant": true
    },
    {
      "inputs": [],
      "name": "leave",
      "outputs": [],
      "stateMutability": "nonpayable",
      "type": "function"
    },
    {
      "inputs": [],
      "name": "withdraw",
      "outputs": [],
      "stateMutability": "nonpayable",
      "type": "function"
    }
  ],
  "bytecode": "0x60806040523480156200001157600080fd5b50604051620011733803806200117383398181016040528101906200003791906200021c565b336000806101000a81548173ffffffffffffffffffffffffffffffffffffffff021916908373ffffffffffffffffffffffffffffffffffffffff1602179055506000600160008060009054906101000a900473ffffffffffffffffffffffffffffffffffffffff1673ffffffffffffffffffffffffffffffffffffffff1673ffffffffffffffffffffffffffffffffffffffff168152602001908152602001600020819055506001600260008060009054906101000a900473ffffffffffffffffffffffffffffffffffffffff1673ffffffffffffffffffffffffffffffffffffffff1673ffffffffffffffffffffffffffffffffffffffff16815260200190815260200160002060006101000a81548160ff02191690831515021790555080600360006101000a81548173ffffffffffffffffffffffffffffffffffffffff021916908373ffffffffffffffffffffffffffffffffffffffff160217905550506200024e565b600080fd5b600073ffffffffffffffffffffffffffffffffffffffff82169050919050565b6000620001d082620001a3565b9050919050565b6000620001e482620001c3565b9050919050565b620001f681620001d7565b81146200020257600080fd5b50565b6000815190506200021681620001eb565b92915050565b6000602082840312156200023557620002346200019e565b5b6000620002458482850162000205565b91505092915050565b610f15806200025e6000396000f3fe6080604052600436106100705760003560e01c80638da5cb5b1161004e5780638da5cb5b146100e5578063ad7a672f14610110578063d66d9e191461013b578063f4caee881461015257610070565b806328ffe6c8146100755780633ccfd60b1461009157806370a08231146100a8575b600080fd5b61008f600480360381019061008a9190610a1e565b61018f565b005b34801561009d57600080fd5b506100a6610507565b005b3480156100b457600080fd5b506100cf60048036038101906100ca9190610a1e565b610650565b6040516100dc9190610a64565b60405180910390f35b3480156100f157600080fd5b506100fa610699565b6040516101079190610a8e565b60405180910390f35b34801561011c57600080fd5b506101256106c2565b6040516101329190610a64565b60405180910390f35b34801561014757600080fd5b506101506106ca565b005b34801561015e57600080fd5b5061017960048036038101906101749190610a1e565b610965565b6040516101869190610ac4565b60405180910390f35b60011515600260008373ffffffffffffffffffffffffffffffffffffffff1673ffffffffffffffffffffffffffffffffffffffff16815260200190815260200160002060009054906101000a900460ff16151514610222576040517f08c379a000000000000000000000000000000000000000000000000000000000815260040161021990610b3c565b60405180910390fd5b60001515600260003373ffffffffffffffffffffffffffffffffffffffff1673ffffffffffffffffffffffffffffffffffffffff16815260200190815260200160002060009054906101000a900460ff161515146102b5576040517f08c379a00000000000000000000000000000000000000000000000000000000081526004016102ac90610ba8565b60405180910390fd5b662386f26fc1000034146102fe576040517f08c379a00000000000000000000000000000000000000000000000000000000081526004016102f590610c3a565b60405180910390fd5b600034905060006064826103129190610cb8565b905080600160008573ffffffffffffffffffffffffffffffffffffffff1673ffffffffffffffffffffffffffffffffffffffff16815260200190815260200160002060008282546103639190610ce9565b9250508190555080826103769190610d3f565b600160003373ffffffffffffffffffffffffffffffffffffffff1673ffffffffffffffffffffffffffffffffffffffff168152602001908152602001600020819055506001600260003373ffffffffffffffffffffffffffffffffffffffff1673ffffffffffffffffffffffffffffffffffffffff16815260200190815260200160002060006101000a81548160ff021916908315150217905550600360009054906101000a900473ffffffffffffffffffffffffffffffffffffffff1673ffffffffffffffffffffffffffffffffffffffff166340c10f1933670de0b6b3a76400006040518363ffffffff1660e01b8152600401610476929190610db8565b600060405180830381600087803b15801561049057600080fd5b505af11580156104a4573d6000803e3d6000fd5b505050508273ffffffffffffffffffffffffffffffffffffffff163373ffffffffffffffffffffffffffffffffffffffff167f2d02e423de531208beb4f472c3dc736ffa9c141c9779e987230974ed64b0a8f060405160405180910390a3505050565b60008054906101000a900473ffffffffffffffffffffffffffffffffffffffff1673ffffffffffffffffffffffffffffffffffffffff163373ffffffffffffffffffffffffffffffffffffffff161461055f57600080fd5b60006105696106c2565b1161057357600080fd5b600061059e60008054906101000a900473ffffffffffffffffffffffffffffffffffffffff16610650565b90503373ffffffffffffffffffffffffffffffffffffffff166108fc829081150290604051600060405180830381858888f193505050501580156105e6573d6000803e3d6000fd5b506000600160008060009054906101000a900473ffffffffffffffffffffffffffffffffffffffff1673ffffffffffffffffffffffffffffffffffffffff1673ffffffffffffffffffffffffffffffffffffffff1681526020019081526020016000208190555050565b6000600160008373ffffffffffffffffffffffffffffffffffffffff1673ffffffffffffffffffffffffffffffffffffffff168152602001908152602001600020549050919050565b60008060009054906101000a900473ffffffffffffffffffffffffffffffffffffffff16905090565b600047905090565b60008054906101000a900473ffffffffffffffffffffffffffffffffffffffff1673ffffffffffffffffffffffffffffffffffffffff163373ffffffffffffffffffffffffffffffffffffffff161415610759576040517f08c379a000000000000000000000000000000000000000000000000000000000815260040161075090610e2d565b60405180910390fd5b60011515600260003373ffffffffffffffffffffffffffffffffffffffff1673ffffffffffffffffffffffffffffffffffffffff16815260200190815260200160002060009054906101000a900460ff161515146107ec576040517f08c379a00000000000000000000000000000000000000000000000000000000081526004016107e390610ebf565b60405180910390fd5b6000600160003373ffffffffffffffffffffffffffffffffffffffff1673ffffffffffffffffffffffffffffffffffffffff1681526020019081526020016000205490506000600160003373ffffffffffffffffffffffffffffffffffffffff1673ffffffffffffffffffffffffffffffffffffffff168152602001908152602001600020819055506000600260003373ffffffffffffffffffffffffffffffffffffffff1673ffffffffffffffffffffffffffffffffffffffff16815260200190815260200160002060006101000a81548160ff0219169083151502179055503373ffffffffffffffffffffffffffffffffffffffff166108fc829081150290604051600060405180830381858888f19350505050158015610913573d6000803e3d6000fd5b503373ffffffffffffffffffffffffffffffffffffffff167f61a26f7c17d8780c095ccfa67e689a13ee4e06ddce3da18956369f4a396100e88260405161095a9190610a64565b60405180910390a250565b6000600260008373ffffffffffffffffffffffffffffffffffffffff1673ffffffffffffffffffffffffffffffffffffffff16815260200190815260200160002060009054906101000a900460ff169050919050565b600080fd5b600073ffffffffffffffffffffffffffffffffffffffff82169050919050565b60006109eb826109c0565b9050919050565b6109fb816109e0565b8114610a0657600080fd5b50565b600081359050610a18816109f2565b92915050565b600060208284031215610a3457610a336109bb565b5b6000610a4284828501610a09565b91505092915050565b6000819050919050565b610a5e81610a4b565b82525050565b6000602082019050610a796000830184610a55565b92915050565b610a88816109e0565b82525050565b6000602082019050610aa36000830184610a7f565b92915050565b60008115159050919050565b610abe81610aa9565b82525050565b6000602082019050610ad96000830184610ab5565b92915050565b600082825260208201905092915050565b7f4572726f722c20726566657272616c20646f6573206e6f742065786973742e00600082015250565b6000610b26601f83610adf565b9150610b3182610af0565b602082019050919050565b60006020820190508181036000830152610b5581610b19565b9050919050565b7f4572726f722c20616c72656164792070617274696369706174696e672e000000600082015250565b6000610b92601d83610adf565b9150610b9d82610b5c565b602082019050919050565b60006020820190508181036000830152610bc181610b85565b9050919050565b7f4572726f722c2076616c756520746f206a6f696e20697320302e30312045544860008201527f2e00000000000000000000000000000000000000000000000000000000000000602082015250565b6000610c24602183610adf565b9150610c2f82610bc8565b604082019050919050565b60006020820190508181036000830152610c5381610c17565b9050919050565b7f4e487b7100000000000000000000000000000000000000000000000000000000600052601260045260246000fd5b7f4e487b7100000000000000000000000000000000000000000000000000000000600052601160045260246000fd5b6000610cc382610a4b565b9150610cce83610a4b565b925082610cde57610cdd610c5a565b5b828204905092915050565b6000610cf482610a4b565b9150610cff83610a4b565b9250827fffffffffffffffffffffffffffffffffffffffffffffffffffffffffffffffff03821115610d3457610d33610c89565b5b828201905092915050565b6000610d4a82610a4b565b9150610d5583610a4b565b925082821015610d6857610d67610c89565b5b828203905092915050565b6000819050919050565b6000819050919050565b6000610da2610d9d610d9884610d73565b610d7d565b610a4b565b9050919050565b610db281610d87565b82525050565b6000604082019050610dcd6000830185610a7f565b610dda6020830184610da9565b9392505050565b7f4572726f722c206f776e65722063616e6e6f74206c656176652e000000000000600082015250565b6000610e17601a83610adf565b9150610e2282610de1565b602082019050919050565b60006020820190508181036000830152610e4681610e0a565b9050919050565b7f4572726f722c20636f756c64206e6f742066696e64207061727469636970616e60008201527f742e000000000000000000000000000000000000000000000000000000000000602082015250565b6000610ea9602283610adf565b9150610eb482610e4d565b604082019050919050565b60006020820190508181036000830152610ed881610e9c565b905091905056fea2646970667358221220af1bdb119739184193c9880511a98f7e20af2ece1f7903a08986ddc1ecdec67264736f6c634300080a0033",
  "immutableReferences": {},
  "source": "// SPDX-License-Identifier: MIT\npragma solidity >=0.4.22 <0.9.0;\n\nimport './GizaToken.sol';\n\ncontract Khufu {\n  address private _owner;\n  mapping(address => uint256) private _balances;\n  mapping(address => bool) private _isParticipating;\n\n  event Join(address indexed user, address indexed referral);\n  event Leave(address indexed user, uint amount);\n  \n  GizaToken private _gizaToken;\n\n  constructor(GizaToken gizaToken_) {\n    _owner = msg.sender;\n    _balances[_owner] = 0;\n    _isParticipating[_owner] = true;\n    _gizaToken = gizaToken_;\n  }\n\n  function owner() public view returns (address) {\n    return _owner;\n  }\n\n  function totalBalance() public view returns (uint256) {\n    return address(this).balance;\n  }\n\n  function isParticipating(address _participant) public view returns (bool) {\n    return _isParticipating[_participant];\n  }\n\n  function join(address _referral) external payable {\n    require(_isParticipating[_referral] == true, 'Error, referral does not exist.');\n    require(_isParticipating[msg.sender] == false, 'Error, already participating.');\n    require(msg.value == 1e16, 'Error, value to join is 0.01 ETH.');\n\n    uint256 value = msg.value;\n    uint256 fee = value / 100;\n    _balances[_referral] += fee;\n    _balances[msg.sender] = value - fee;\n    _isParticipating[msg.sender] = true;\n\n    _gizaToken.mint(msg.sender, 1e18); // 1 GIZA\n\n    emit Join(msg.sender, _referral);\n  }\n\n  function balanceOf(address participant) public view returns (uint256) {\n    return _balances[participant];\n  }\n\n  function leave() public {\n    require(msg.sender != _owner, 'Error, owner cannot leave.');\n    require(_isParticipating[msg.sender] == true, 'Error, could not find participant.');\n\n    uint256 balance = _balances[msg.sender];\n    _balances[msg.sender] = 0;\n    _isParticipating[msg.sender] = false;\n\n    payable(msg.sender).transfer(balance);\n\n    emit Leave(msg.sender, balance);\n  }\n\n  function withdraw() public {\n    require(msg.sender == _owner);\n    require(totalBalance() > 0);\n\n    uint256 ownerBalance = balanceOf(_owner);\n    payable(msg.sender).transfer(ownerBalance);\n\n    _balances[_owner] = 0;\n  }\n}\n",
  "sourcePath": "/Users/rphlfc/Documents/workspace-blockchain/khufu/src/contracts/Khufu.sol",
  "compiler": {
    "name": "solc",
    "version": "0.8.10+commit.fc410830.Emscripten.clang"
  },
  "schemaVersion": "3.4.3",
  "updatedAt": "2022-01-15T15:20:17.567Z",
  "networkType": "ethereum",
  "devdoc": {
    "kind": "dev",
    "methods": {},
    "version": 1
  },
  "userdoc": {
    "kind": "user",
    "methods": {},
    "version": 1
  }
}